:020000040800F2
:100000000050002021020008290200082D020008EB
:10001000A1020008A5020008ED020008000000008F
:100020000000000000000000000000003503000890
:1000300039030008000000003D030008450C0008DB
:100040005103000851030008510300085103000840
:100050005103000851030008510300085103000830
:100060005103000851030008510300085103000820
:100070005103000851030008510300085103000810
:100080005103000851030008510300085103000800
:1000900051030008510300085103000851030008F0
:1000A00051030008510300085103000851030008E0
:1000B00051030008510300085103000851030008D0
:1000C00051030008510300085103000851030008C0
:1000D00051030008510300085103000851030008B0
:1000E00051030008510300085103000800000000FC
:1000F0000000000000000000000000000000000000
:1001000000000000000000005FF808F100B583B0B7
:1001100000F0B0F9304B314A1360314A1360314B73
:10012000314A03E011681960043304322F498B42CD
:10013000F8D32A4B1A682E4B9A4204D1284B1A68DE
:100140002C4B9A4200D0FEE7234B2B4A13602B4ADC
:1001500013602B4B02E000221A600433294A9342B9
:10016000F9D3254B1B6813B9244B1B6803B1FEE779
:1001700000F08CF9694601A800F026F9224C234BC7
:100180001C1BA410002504E01F4B53F82530984792
:100190000135AC42F8DC1E4C1E4B1C1BA410002584
:1001A00004E01B4B53F8253098470135AC42F8DC8E
:1001B0000099019800F04EFD0546174C174B1C1B8B
:1001C000A41004E0013C144B53F824309847002C51
:1001D000F8DC284600F0D4F8BABADECA00000020E5
:1001E00094000020000000208C1E000898000020D1
:1001F000785634123254769898000020440100203A
:1002000098000020480100207C0300087C030008BF
:100210007C0300087C0300087C0300087C030008C2
:1002200008B5FFF773FF00BF00BEFEE71EF0040F26
:100230000CBFEFF30880EFF309807146414A104785
:100240002DE9F04182B004468846134B5E6B9F6BEC
:100250009D6A1B6B13F0020F0DD00F4BDB6A002B56
:1002600009DA4BF6AB6100F08DF920B14FF0004296
:10027000094BDA620CE0094800F0AEF8CDF80080D6
:100280003B4632462946204600F004F900BEFEE710
:1002900002B0BDE8F08100BF00ED00E01C1E0008C8
:1002A00000BEFEE71EF0040F0CBFEFF30880EFF373
:1002B00009807146244A10472DE9F04182B0044676
:1002C0008846084B5E6B9F6B9D6A074800F084F878
:1002D000CDF800803B4632462946204600F0DAF849
:1002E00000BEFEE700ED00E02C1E00081EF0040F2B
:1002F0000CBFEFF30880EFF309807146134A1047F3
:100300002DE9F04182B004468846084B5E6B9F6B36
:100310009D6A074800F060F8CDF800803B46324601
:100320002946204600F0B6F800BEFEE700ED00E0EA
:10033000381E000800BEFEE700BEFEE700BEFEE776
:100340007047000041020008B902000801030008DC
:0403500000BEFEE706
:100354008C1E000800000020980000208C1E00085D
:100364000000000000000000980000204801002068
:08037400000000000000000081
:10038000FEE700BF08B50D4B1B6813B90C4A0B4BB9
:100390001A600A4B1A68C31C23F00303134409496B
:1003A0008B4206D901F062F80C2303604FF0FF3056
:1003B00008BD02490B60104608BD00BF9C0000202C
:1003C00048010020004C002001230360014B0B601A
:1003D000704700BF040000200FB400B583B004AB29
:1003E00053F8042B01938021064801F071F800288E
:1003F00003DD0146034800F039F803B05DF804EB73
:1004000004B07047A40000202DE9F04385B00446F5
:100410000F46435613BB042528462146ABBE04466F
:100420001FE03546102E28BF1025002306E014F9E2
:10043000011B04AA1A4402F8101C0133AB42F6D384
:1004400004AA1344002203F8102CE9464FF00408D4
:1004500040464946ABBE8046761B00E00E46002E65
:10046000DFD1384605B0BDE8F08300BF08B5FFF71F
:10047000CBFF08BD08B500F0FBF8024B024A9A60BA
:1004800008BD00BF00ED00E00000000808B500F066
:1004900017F908BDF8B504460D4617461E4626480E
:1004A000FFF79AFF21682548FFF796FF6168244807
:1004B000FFF792FFA1682348FFF78EFFE16822480B
:1004C000FFF78AFF21692148FFF786FF616920480D
:1004D000FFF782FFA1691F48FFF77EFFE1691E4811
:1004E000FFF77AFF1D48FFF777FF29461C48FFF703
:1004F00073FF1C4CE16A1C48FFF76EFF216B1B4821
:10050000FFF76AFFE16B1A48FFF766FF15F0800FEF
:1005100003D039461748FFF75FFF15F4004F03D0AB
:1005200031461548FFF758FF1448FFF755FF069965
:100530001348FFF751FFF8BD001D0008101D00080B
:10054000201D0008301D0008401D0008501D000837
:10055000601D0008701D0008801D0008901D000827
:100560009C1D000800ED00E0AC1D0008BC1D00084B
:10057000CC1D0008DC1D0008EC1D0008FC1D000857
:10058000041E000883691A888A4207D10268033A68
:10059000012A05D80233836101207047002070478B
:1005A0000020704782B00023019300932C4A136807
:1005B00043F4803313602A4B1B6803F40033009329
:1005C000019B01330193009B1BB9019BB3F5A06F05
:1005D000F1D1234B1B6813F4003F02D00123009399
:1005E00001E000230093009B012B36D11D4B1A68BC
:1005F00042F010021A601A6822F003021A601A68A8
:1006000042F002021A60A3F580535A685A605A6891
:100610005A605A6842F480625A605A6822F47C1226
:100620005A605A6842F4E8125A601A6842F08072BE
:100630001A600B4B1B6813F0007FFAD0084B5A6806
:1006400022F003025A605A6842F002025A60044BD8
:100650005B6803F00C03082BF9D102B0704700BFB0
:10066000001002400020024008B5FFF79BFF08BDC4
:1006700008B5104B1A6842F001021A6059680E4A18
:100680000A405A601A6822F0847222F480321A609A
:100690001A6822F480221A605A6822F4FE025A6014
:1006A0004FF41F029A60FFF7DFFF4FF00062034B29
:1006B0009A6008BD001002400000FFF800ED00E065
:1006C0001F4B5B6803F00C03042B06D0082B08D0EB
:1006D0003BBB1C4A1C4B1A6026E01A4A1A4B1A6094
:1006E00022E0174A53685268C3F38343023312F47B
:1006F000803F05D1154A02FB03F3134A136013E050
:100700000F4A526812F4003F05D0104A02FB03F36F
:100710000D4A136008E00B4A02FB03F30A4A136018
:1007200002E0084A084B1A60054B5B68C3F30313E9
:10073000074AD35CDAB204490B68D3400B607047B8
:100740000010024000127A001C00002000093D0049
:100750000C00002008B5094B1B783BB90121002093
:1007600000F08EF80122054B1A7008BD00210846E2
:1007700000F086F80022014B1A7008BD2401002009
:1007800008B5034B1946187900F0DEF908BD00BF23
:100790002000002008B5094B1B783BB90121084611
:1007A00000F06EF80122054B1A7008BD00210120EF
:1007B00000F066F80022014B1A7008BD25010020E8
:1007C00008B50249012000F0BFF908BD481E000825
:1007D00003281FD8DFE800F002091017012303FAED
:1007E00001F10D4B196100207047012303FA01F15B
:1007F0000A4B196100207047012303FA01F1084BED
:10080000196100207047012303FA01F1054B1961BA
:10081000002070470120704700080140000C014093
:10082000001001400014014003281FD8DFE800F049
:1008300002091017012303FA01F10D4B5961002041
:100840007047012303FA01F10A4B596100207047F8
:10085000012303FA01F1084B59610020704701237D
:1008600003FA01F1054B59610020704701207047E0
:1008700000080140000C014000100140001401403C
:1008800008B5020900F00F0331B1012909D1194659
:100890001046FFF79DFF08BD19461046FFF7C4FF3D
:1008A00008BD012008BD00BF70B4060900F00F00AC
:1008B000072839D8032E73D8DFE806F0020F1C2969
:1008C0003A4A136885000F20A84023EA000301FA82
:1008D00005F018431060002065E0354A1368840075
:1008E0000F20A04023EA000301FA04F0184310602F
:1008F000002058E02F4C236882000F20904023EA0C
:10090000000301FA02F01843206000204BE02A4C5B
:10091000226883000F20984022EA000201FA03F0C7
:100920001043206000203EE00838C0B2032E39D8C2
:10093000DFE806F0020F1C291C4C636880000F22C0
:10094000824023EA020301FA00F0184360600020AD
:1009500029E0174C636880000F22824023EA0203DB
:1009600001FA00F01843606000201CE0114C63683D
:1009700080000F22824023EA020301FA00F01843AC
:10098000606000200FE00C4C636880000F22824002
:1009900023EA020301FA00F018436060002002E03D
:1009A000012000E0012070BC704700BF000801403A
:1009B000000C0140001001400014014008B5022164
:1009C0000020FFF771FF02210120FFF76DFF0221D8
:1009D0000846FFF769FF02210320FFF765FF0221A8
:1009E0000420FFF761FF02210520FFF75DFF0221D0
:1009F0000620FFF759FF02210720FFF755FF0221CC
:100A00000820FFF751FF02210920FFF74DFF0221C7
:100A10000A20FFF749FF02210B20FFF745FF0221C3
:100A20000C20FFF741FF02210D20FFF73DFF0221BF
:100A30000E20FFF739FF02210F20FFF735FF0221BB
:100A40001020FFF731FF02211120FFF72DFF0221B7
:100A50001220FFF729FF02211320FFF725FF0221B3
:100A60001420FFF721FF02211520FFF71DFF0221AF
:100A70001620FFF719FF02211720FFF715FF0221AB
:100A80001820FFF711FF02211920FFF70DFF0221A7
:100A90001A20FFF709FF02211B20FFF705FF0221A3
:100AA0001C20FFF701FF02211D20FFF7FDFE0221A0
:100AB0001E20FFF7F9FE02211F20FFF7F5FE02219D
:100AC0002D20FFF7F1FE02212E20FFF7EDFE02217F
:100AD0002F20FFF7E9FE02213020FFF7E5FE02217B
:100AE0003120FFF7E1FE08BD10B5002412E00B4BEA
:100AF00053F8240083680A4A1168B1FBF3F203FB40
:100B000012130BB903689847054A13680133136041
:100B10000134E4B2012CEAD910BD00BF3801002035
:100B20002801002008B500F055F84FF47A7000F065
:100B30006BF8024800F060F808BD00BFE90A000841
:100B400008B500F051F808BD012805D831B1044BB3
:100B500043F82010002070470120704701207047A3
:100B600038010020074A136843F00103136013F0B3
:100B7000020FFCD0034A137903F0FE036FF3410325
:100B8000137170470010024003281FD8DFE800F0FF
:100B9000020910170E4A936943F004039361002081
:100BA00070470B4A936943F0080393610020704734
:100BB000074A936943F01003936100207047044A89
:100BC000936943F020039361002070470120704730
:100BD00000100240034A136823F0040343F00203A9
:100BE0001360704710E000E0024A136843F001030D
:100BF0001360704710E000E008B1014A10607047D0
:100C0000400100200000000008B500F097F908A39B
:100C1000D3E9002300F0F8F907A3D3E9002300F09B
:100C20001DFB00F003FC064B186008BDAFF300800D
:100C3000FCA9F1D24D62503F8DEDB5A0F7C6B03E94
:100C400014E000E008B5024B1B68984708BD00BFE0
:100C50004001002008B5FFF785FF0020FFF794FF53
:100C60000120FFF791FF0220FFF78EFFFFF7A6FE9E
:100C700003210020FFF718FE03210120FFF714FED7
:100C8000FFF7A8FFFFF77CFDFFF79AFDFFF74AFF8C
:100C9000FFF756FFFEE700BF81F0004102E000BF12
:100CA00083F0004330B54FEA41044FEA430594EA2C
:100CB000050F08BF90EA020F1FBF54EA000C55EA67
:100CC000020C7FEA645C7FEA655C00F0E2804FEA38
:100CD0005454D4EB5555B8BF6D420CDD2C4480EA1A
:100CE000020281EA030382EA000083EA010180EA4A
:100CF000020281EA0303362D88BF30BD11F0004F98
:100D00004FEA01314FF4801C4CEA113102D04042CD
:100D100061EB410113F0004F4FEA03334CEA133308
:100D200002D0524263EB430394EA050F00F0A78020
:100D3000A4F10104D5F1200E0DDB02FA0EFC22FA1B
:100D400005F2801841F1000103FA0EF2801843FA0F
:100D500005F359410EE0A5F120050EF1200E012A00
:100D600003FA0EFC28BF4CF0020C43FA05F3C0183E
:100D700051EBE37101F0004507D54FF0000EDCF1B7
:100D8000000C7EEB00006EEB0101B1F5801F1BD360
:100D9000B1F5001F0CD349085FEA30004FEA3C0C64
:100DA00004F101044FEA445212F5800F80F09A805A
:100DB000BCF1004F08BF5FEA500C50F1000041EB5E
:100DC000045141EA050130BD5FEA4C0C404141EB62
:100DD000010111F4801FA4F10104E9D191F0000F89
:100DE00004BF01460020B1FA81F308BF2033A3F10C
:100DF0000B03B3F120020CDA0C3208DD02F1140C03
:100E0000C2F10C0201FA0CF021FA02F10CE002F13D
:100E10001402D8BFC2F1200C01FA02F120FA0CFC36
:100E2000DCBF41EA0C019040E41AA2BF01EB04517F
:100E3000294330BD6FEA04041F3C1CDA0C340EDC7D
:100E400004F11404C4F1200220FA04F001FA02F3C0
:100E500040EA030021FA04F345EA030130BDC4F17E
:100E60000C04C4F1200220FA02F001FA04F340EA73
:100E70000300294630BD21FA04F0294630BD94F024
:100E8000000F83F4801306BF81F480110134013D0B
:100E90004EE77FEA645C18BF7FEA655C29D094EA7C
:100EA000050F08BF90EA020F05D054EA000C04BFFA
:100EB0001946104630BD91EA030F1EBF00210020E5
:100EC00030BD5FEA545C05D14000494128BF41F084
:100ED000004130BD14F580043CBF01F5801130BDE8
:100EE00001F0004545F0FE4141F470014FF0000073
:100EF00030BD7FEA645C1ABF194610467FEA655C24
:100F00001CBF0B46024650EA013406BF52EA0335C5
:100F100091EA030F41F4002130BD00BF90F0000FB3
:100F200004BF0021704730B54FF4806404F13204EF
:100F30004FF000054FF0000150E700BF90F0000FA8
:100F400004BF0021704730B54FF4806404F13204CF
:100F500010F0004548BF40424FF000013EE700BF9F
:100F600042004FEAE2014FEA31014FEA02701FBF2F
:100F700012F07F4393F07F4F81F06051704792F001
:100F8000000F14BF93F07F4F704730B54FF460747B
:100F900001F0004521F0004120E700BF50EA0102C6
:100FA00008BF704730B54FF000050AE050EA010273
:100FB00008BF704730B511F0004502D5404261EBE3
:100FC00041014FF4806404F132045FEA915C3FF424
:100FD000DCAE4FF003025FEADC0C18BF03325FEABD
:100FE000DC0C18BF033202EBDC02C2F1200300FA72
:100FF00003FC20FA02F001FA03FE40EA0E0021FA97
:1010000002F11444C1E600BF70B54FF0FF0C4CF480
:10101000E06C1CEA11541DBF1CEA135594EA0C0F36
:1010200095EA0C0F00F0DEF82C4481EA030621EA71
:101030004C5123EA4C5350EA013518BF52EA0335AC
:1010400041F4801143F4801338D0A0FB02CE4FF05E
:101050000005E1FB02E506F00042E0FB03E54FF08E
:101060000006E1FB03569CF0000F18BF4EF0010E86
:10107000A4F1FF04B6F5007F64F5407404D25FEA82
:101080004E0E6D4146EB060642EAC62141EA555135
:101090004FEAC52040EA5E504FEACE2EB4F1FD0C77
:1010A00088BFBCF5E06F1ED8BEF1004F08BF5FEAF5
:1010B000500E50F1000041EB045170BD06F00046A7
:1010C00046EA010140EA020081EA0301B4EB5C0454
:1010D000C2BFD4EB0C0541EA045170BD41F480114C
:1010E0004FF0000E013C00F3AB8014F1360FDEBF71
:1010F000002001F0004170BDC4F10004203C35DA4D
:101100000C341BDC04F11404C4F1200500FA05F3CF
:1011100020FA04F001FA05F240EA020001F0004270
:1011200021F0004110EBD37021FA04F642EB0601E6
:101130005EEA430E08BF20EAD37070BDC4F10C0410
:10114000C4F1200500FA04F320FA05F001FA04F2D4
:1011500040EA020001F0004110EBD37041F10001C0
:101160005EEA430E08BF20EAD37070BDC4F12005CB
:1011700000FA05F24EEA020E20FA04F301FA05F233
:1011800043EA020321FA04F001F0004121FA04F2DB
:1011900020EA020000EBD3705EEA430E08BF20EAAB
:1011A000D37070BD94F0000F0FD101F000464000E5
:1011B00041EB010111F4801F08BF013CF7D041EA67
:1011C000060195F0000F18BF704703F0004652006B
:1011D00043EB030313F4801F08BF013DF7D043EA3C
:1011E0000603704794EA0C0F0CEA135518BF95EAF2
:1011F0000C0F0CD050EA410618BF52EA4306D1D179
:1012000081EA030101F000414FF0000070BD50EA97
:10121000410606BF1046194652EA430619D094EA21
:101220000C0F02D150EA013613D195EA0C0F05D10B
:1012300052EA03361CBF104619460AD181EA03015F
:1012400001F0004141F0FE4141F470014FF0000017
:1012500070BD41F0FE4141F4780170BD70B54FF0B2
:10126000FF0C4CF4E06C1CEA11541DBF1CEA135532
:1012700094EA0C0F95EA0C0F00F0A7F8A4EB050414
:1012800081EA030E52EA03354FEA013100F088800B
:101290004FEA03334FF0805545EA131343EA1263D4
:1012A0004FEA022245EA111545EA10654FEA002689
:1012B0000EF000419D4208BF964244F1FD0404F542
:1012C000407402D25B084FEA3202B61A65EB03059E
:1012D0005B084FEA32024FF480104FF4002CB6EB5B
:1012E000020E75EB030E22BFB61A754640EA0C00DB
:1012F0005B084FEA3202B6EB020E75EB030E22BF1B
:10130000B61A754640EA5C005B084FEA3202B6EB5B
:10131000020E75EB030E22BFB61A754640EA9C001A
:101320005B084FEA3202B6EB020E75EB030E22BFEA
:10133000B61A754640EADC0055EA060E18D04FEAA8
:10134000051545EA16754FEA06164FEAC30343EA48
:1013500052734FEAC2025FEA1C1CC0D111F4801F15
:101360000BD141EA00014FF000004FF0004CB6E70E
:1013700011F4801F04BF01430020B4F1FD0C88BFAD
:10138000BCF5E06F3FF6AFAEB5EB030C04BFB6EBB8
:10139000020C5FEA500C50F1000041EB045170BDAB
:1013A0000EF0004E4EEA113114EB5C04C2BFD4EBD8
:1013B0000C0541EA045170BD41F480114FF0000E5C
:1013C000013C90E645EA060E8DE60CEA135594EAD8
:1013D0000C0F08BF95EA0C0F3FF43BAF94EA0C0FDB
:1013E0000AD150EA01347FF434AF95EA0C0F7FF450
:1013F00025AF104619462CE795EA0C0F06D152EAA4
:1014000003353FF4FDAE1046194622E750EA410687
:1014100018BF52EA43067FF4C5AE50EA41047FF498
:101420000DAF52EA43057FF4EBAE12E74A0011D24A
:1014300012F5001211D20DD56FF47873B3EB62522E
:101440000ED44FEAC12343F0004343EA505323FA3A
:1014500002F070474FF00000704750EA013002D1AF
:101460004FF0FF3070474FF000007047014B186895
:10147000704700BF9000002030B5141E05469BB099
:10148000184604DA8B232B604FF0FF301DE04FF439
:101490000273ADF80C300CBF234604F1FF33029306
:1014A00005934FF6FF7300910491ADF80E3002469C
:1014B0001E9B6946284600F073F8431CBCBF8B2373
:1014C0002B6014B1009B00221A701BB030BD0000CD
:1014D00007B5009313460A46014603480068FFF724
:1014E000CBFF03B05DF804FB900000202DE9F0472E
:1014F0008E6882469E420C46914698463ED88A891E
:1015000012F4906F3AD02568096902236F1A656951
:1015100005EB450595FBF3F57B1C43449D4238BF25
:101520001D4653050FD5294600F04AFB064698B1E3
:101530003A46216900F0D2FAA38923F4906343F07C
:101540008003A38113E02A4600F098FB064670B999
:101550002169504600F0E8FA0C23CAF80030A3894C
:101560004FF0FF3043F04003A381BDE8F0872661D0
:101570003E44266046466561ED1BA560464528BF92
:10158000464649463246206800F0B3FAA368002078
:101590009B1BA36023681E442660BDE8F087000003
:1015A0002DE9F04F9DB003938B8980461C060D46B4
:1015B00016460DD50B695BB9402100F001FB286090
:1015C000286118B90C23C8F80030CDE040236B61C6
:1015D0000023099320238DF82930DFF89CB13023B4
:1015E0008DF82A3037463C4614F8013B1BB9B7EB5F
:1015F000060910D003E0252BF9D02746F3E74B4628
:10160000324629464046FFF771FF013000F0A780BF
:10161000099B4B4409933B78002B00F0A0800023EA
:101620004FF0FF3204930793059206938DF85330E1
:101630001A930126052221784E4800F041FA671CD2
:10164000049B38B14B4A3C46801A06FA00F0184316
:101650000490EFE7D90644BF20228DF853201A07E3
:1016600044BF2B228DF8532022782A2A03D0079AD0
:1016700000210A200BE0039A111D12680391002A31
:1016800010DA524243F00200079204900BE0274622
:101690003B780134303B092B03D800FB0232012197
:1016A000F5E701B107923B782E2B1ED17B782A2BD0
:1016B0000AD1039B02371A1D1B680392002BB8BF87
:1016C0004FF0FF33059310E0002319460593781C73
:1016D0000A2407463A780130303A092A03D804FB35
:1016E00001210123F5E703B105910322397822484E
:1016F00000F0E6F940B14023CBEB000003FA00F024
:10170000049B013718430490397806221B487E1C3D
:101710008DF8281000F0D4F988B1194B33B9039B28
:10172000073323F007030833039314E003AB00935C
:101730002A46144B04A94046AFF3008007E003ABF0
:1017400000932A460F4B04A9404600F093F8B0F1ED
:10175000FF3F824603D0099B5344099342E7AB897C
:101760005B0601D4099801E04FF0FF301DB0BDE8E1
:10177000F08F00BF581E00085E1E0008621E0008A1
:1017800000000000ED1400082DE9F04791461F46C7
:101790000A698B6806469342B8BF1346C9F8003001
:1017A00091F843200C46DDF8208012B10133C9F8CE
:1017B00000302368990642BFD9F800300233C9F8D7
:1017C0000030256815F0060510D104F1190A07E06C
:1017D0000123524639463046C04701301AD0013500
:1017E000E368D9F800209B1A9D42F1DB94F843305E
:1017F0002268003318BF012392060FD5E11830206C
:1018000081F843005A1C94F845102244023382F8B0
:10181000431003E04FF0FF30BDE8F08704F14302CE
:1018200039463046C0470130F4D02268D9F800501C
:10183000E36802F00602042A08BF5D1B2269A36860
:101840000CBF25EAE57500259342C4BF9B1AED182D
:101850004FF000091A344D4509D00123224639467C
:101860003046C0470130D5D009F10109F3E7002027
:10187000BDE8F0872DE9F04317460A7E85B06E2A51
:10188000984606460C460C9B01F1430E00F0AE80D4
:1018900011D8632A22D009D8002A00F0BB80582A28
:1018A00040F0CA8081F84520834955E0642A1ED063
:1018B000692A1CD0C0E0732A00F0B08009D86F2AD2
:1018C0002ED0702A40F0B8800A6842F020020A60E8
:1018D0003EE0752A24D0782A3AD0ADE01A6801F1AA
:1018E0004205111D1960136884F84230A8E0216890
:1018F0001A6811F0800F02D0111D196008E011F074
:10190000400F02F10401196002D0B2F9003000E08A
:101910001368002B3CDA2D225B4284F8432037E029
:1019200021681A6811F0800F02D0111D196007E0BC
:1019300011F0400F02F10401196001D0138800E09A
:101940001368227E5C496F2A14BF0A2208221BE01A
:1019500078225A4984F845202268186812F0800FCE
:1019600000F104051D6003D1550601D5038800E090
:101970000368D00744BF42F0200222601BB92268EE
:1019800022F0200222601022002084F8430001E0AF
:1019900049490A226568002DA56008DB206820F00F
:1019A000040020602BB9002D7DD175460CE0002B82
:1019B00079D07546B3FBF2F002FB1033CB5C05F82F
:1019C000013D03460028F5D1082A0BD12368DA0728
:1019D00008D5236962689A42DEBF302305F8013CCE
:1019E00005F1FF35C5EB0E0323612EE008681A6888
:1019F00010F0800F496903D0101D1860136808E0CB
:101A000010F0400F02F104001860136801D0198033
:101A100000E0196000232361754616E01A68111D65
:101A20001960156800216268284600F049F808B17D
:101A3000401B6060636804E004F1420584F84220C2
:101A400001232361002384F84330CDF800803B4616
:101A500003AA21463046FFF797FE013002D14FF02E
:101A6000FF3026E023692A4639463046C047013018
:101A7000F5D023689B0710D5002504F1190907E06C
:101A800001234A4639463046C0470130E7D0013588
:101A9000E368039A9B1A9D42F2DBE068039B98423D
:101AA000B8BF184605E00B7804F1420584F84230CF
:101AB0008AE705B0BDE8F083691E00087A1E0008B9
:101AC00010B5C9B202449042034605D01C780130DB
:101AD0008C42F8D1184610BD002010BD10B5431E31
:101AE0000A44914204D011F8014B03F8014FF8E782
:101AF00010BD884210B501EB020301D8421E0BE075
:101B00009842FBD28118D21AD34204D013F8014D67
:101B100001F8014DF8E710BD994204D011F8014BCE
:101B200002F8014FF8E710BD38B50546002944D04A
:101B300051F8043C0C1F002BB8BFE41800F0D4F897
:101B40001E4A1368114613B96360146030E0A34263
:101B50000DD92268A018834201BF18685B6812186B
:101B6000226063600C6023E0A24203D813465A68E7
:101B7000002AF9D118681918A1420BD12168014433
:101B800058188242196013D11068526801441960D4
:101B90005A600DE002D90C232B6009E0216860181F
:101BA000824201BF106852680918216062605C605F
:101BB0002846BDE8384000F098B838BD3001002014
:101BC00070B5CD1C25F0030508350C2D38BF0C254C
:101BD000002D064601DBA94202D90C23336046E002
:101BE00000F082F8234B1C681A462146A1B10B680D
:101BF0005B1B0ED40B2B03D90B60CC18CD501EE011
:101C00008C420BBF63684B681360636018BF0C465F
:101C100015E00C464968E9E7174C23681BB93046C4
:101C200000F052F820602946304600F04DF8431C81
:101C300018D0C41C24F00304A0420DD12560304606
:101C400000F053F804F10B00231D20F00700C31A25
:101C50000ED05A42E25070BD211A304600F034F8DE
:101C60000130EBD10C233360304600F03EF8002009
:101C700070BD00BF300100202C010020F8B50746E0
:101C800015460E4621B91146BDE8F840FFF798BF4A
:101C90001AB9FFF749FF2846F8BD00F027F885423A
:101CA0000ED929463846FFF78BFF044650B131461E
:101CB0002A46FFF713FF31463846FFF735FF01E0AC
:101CC0003046F8BD2046F8BD38B5064C0023054621
:101CD00008462360FEF756FB431C02D1236803B17C
:101CE0002B6038BD340100207047704751F8040C58
:101CF0000028BEBF091851F8043CC01804387047CA
:101D0000537461636B206672616D653A0A0000006E
:101D1000205230203D2020253038580A0000000095
:101D2000205231203D2020253038580A0000000084
:101D3000205232203D2020253038580A0000000073
:101D4000205233203D2020253038580A0000000062
:101D500020523132203D20253038580A0000000042
:101D6000204C52203D2020253038580A0000000029
:101D7000205043203D2020253038580A0000000024
:101D800020505352203D20253038580A00000000D2
:101D90004653522F4641523A0A0000002043465310
:101DA00052203D2020253038580A00002048465354
:101DB00052203D2020253038580A00002044465348
:101DC00052203D2020253038580A0000204146533B
:101DD00052203D2020253038580A0000204D4D4625
:101DE0004152203D20253038580A0000204246410B
:101DF00052203D2020253038580A00004D69736379
:101E00000A000000204C522F4558435F524554555C
:101E1000524E3D20253038580A0000005B48617260
:101E2000644661756C745D0A000000005B42757366
:101E30004661756C745D0A005B5573616765466148
:101E4000756C745D0A000000950700080100000031
:101E50000500000000000000232D302B2000686CDE
:101E60004C006566674546470030313233343536BD
:101E700037383941424344454600303132333435F6
:0B1E8000363738396162636465660024
:101E8C0078563412A0000020000000000000000072
:101E9C0000000000010203040607080900A24A041E
:101EAC0055070008000000000A00000000000000B8
:101EBC000000000000000000000000000000000016
:101ECC000000000000000000000000000000000006
:101EDC0000000000000000000000000000000000F6
:101EEC0000000000000000000000000000000000E6
:101EFC0000000000000000000000000000000000D6
:101F0C0000000000000000000000000000000000C5
:081F1C003000002032547698D9
:040000050800010DE1
:00000001FF
